{
  "contractName": "MultiSigWallet",
  "abi": [
    {
      "inputs": [
        {
          "internalType": "address[]",
          "name": "_owners",
          "type": "address[]"
        },
        {
          "internalType": "uint256",
          "name": "_numConfirmationsRequired",
          "type": "uint256"
        }
      ],
      "stateMutability": "nonpayable",
      "type": "constructor"
    },
    {
      "anonymous": false,
      "inputs": [
        {
          "indexed": true,
          "internalType": "address",
          "name": "owner",
          "type": "address"
        },
        {
          "indexed": true,
          "internalType": "uint256",
          "name": "txIndex",
          "type": "uint256"
        }
      ],
      "name": "ConfirmTransaction",
      "type": "event"
    },
    {
      "anonymous": false,
      "inputs": [
        {
          "indexed": true,
          "internalType": "address",
          "name": "sender",
          "type": "address"
        },
        {
          "indexed": false,
          "internalType": "uint256",
          "name": "amount",
          "type": "uint256"
        },
        {
          "indexed": false,
          "internalType": "uint256",
          "name": "balance",
          "type": "uint256"
        }
      ],
      "name": "Deposit",
      "type": "event"
    },
    {
      "anonymous": false,
      "inputs": [
        {
          "indexed": true,
          "internalType": "address",
          "name": "owner",
          "type": "address"
        },
        {
          "indexed": true,
          "internalType": "uint256",
          "name": "txIndex",
          "type": "uint256"
        }
      ],
      "name": "ExecuteTransaction",
      "type": "event"
    },
    {
      "anonymous": false,
      "inputs": [
        {
          "indexed": true,
          "internalType": "address",
          "name": "owner",
          "type": "address"
        },
        {
          "indexed": true,
          "internalType": "uint256",
          "name": "txIndex",
          "type": "uint256"
        }
      ],
      "name": "RevokeConfirmation",
      "type": "event"
    },
    {
      "anonymous": false,
      "inputs": [
        {
          "indexed": true,
          "internalType": "address",
          "name": "owner",
          "type": "address"
        },
        {
          "indexed": true,
          "internalType": "uint256",
          "name": "txIndex",
          "type": "uint256"
        },
        {
          "indexed": true,
          "internalType": "address",
          "name": "to",
          "type": "address"
        },
        {
          "indexed": false,
          "internalType": "uint256",
          "name": "value",
          "type": "uint256"
        },
        {
          "indexed": false,
          "internalType": "bytes",
          "name": "data",
          "type": "bytes"
        }
      ],
      "name": "SubmitTransaction",
      "type": "event"
    },
    {
      "inputs": [],
      "name": "numConfirmationsRequired",
      "outputs": [
        {
          "internalType": "uint256",
          "name": "",
          "type": "uint256"
        }
      ],
      "stateMutability": "view",
      "type": "function",
      "constant": true
    },
    {
      "inputs": [
        {
          "internalType": "uint256",
          "name": "",
          "type": "uint256"
        }
      ],
      "name": "owners",
      "outputs": [
        {
          "internalType": "address",
          "name": "",
          "type": "address"
        }
      ],
      "stateMutability": "view",
      "type": "function",
      "constant": true
    },
    {
      "inputs": [
        {
          "internalType": "uint256",
          "name": "",
          "type": "uint256"
        }
      ],
      "name": "transactions",
      "outputs": [
        {
          "internalType": "address",
          "name": "to",
          "type": "address"
        },
        {
          "internalType": "uint256",
          "name": "value",
          "type": "uint256"
        },
        {
          "internalType": "bytes",
          "name": "data",
          "type": "bytes"
        },
        {
          "internalType": "bool",
          "name": "executed",
          "type": "bool"
        },
        {
          "internalType": "uint256",
          "name": "numConfirmations",
          "type": "uint256"
        }
      ],
      "stateMutability": "view",
      "type": "function",
      "constant": true
    },
    {
      "stateMutability": "payable",
      "type": "receive",
      "payable": true
    },
    {
      "inputs": [
        {
          "internalType": "address",
          "name": "_to",
          "type": "address"
        },
        {
          "internalType": "uint256",
          "name": "_value",
          "type": "uint256"
        },
        {
          "internalType": "bytes",
          "name": "_data",
          "type": "bytes"
        }
      ],
      "name": "submitTransaction",
      "outputs": [],
      "stateMutability": "nonpayable",
      "type": "function"
    },
    {
      "inputs": [
        {
          "internalType": "uint256",
          "name": "_txIndex",
          "type": "uint256"
        }
      ],
      "name": "confirmTransaction",
      "outputs": [],
      "stateMutability": "nonpayable",
      "type": "function"
    },
    {
      "inputs": [
        {
          "internalType": "uint256",
          "name": "_txIndex",
          "type": "uint256"
        }
      ],
      "name": "executeTransaction",
      "outputs": [],
      "stateMutability": "nonpayable",
      "type": "function"
    },
    {
      "inputs": [
        {
          "internalType": "uint256",
          "name": "_txIndex",
          "type": "uint256"
        }
      ],
      "name": "revokeConfirmation",
      "outputs": [],
      "stateMutability": "nonpayable",
      "type": "function"
    },
    {
      "inputs": [],
      "name": "getOwners",
      "outputs": [
        {
          "internalType": "address[]",
          "name": "",
          "type": "address[]"
        }
      ],
      "stateMutability": "view",
      "type": "function",
      "constant": true
    },
    {
      "inputs": [],
      "name": "getTransactionCount",
      "outputs": [
        {
          "internalType": "uint256",
          "name": "",
          "type": "uint256"
        }
      ],
      "stateMutability": "view",
      "type": "function",
      "constant": true
    },
    {
      "inputs": [
        {
          "internalType": "uint256",
          "name": "_txIndex",
          "type": "uint256"
        }
      ],
      "name": "getTransaction",
      "outputs": [
        {
          "internalType": "address",
          "name": "to",
          "type": "address"
        },
        {
          "internalType": "uint256",
          "name": "value",
          "type": "uint256"
        },
        {
          "internalType": "bytes",
          "name": "data",
          "type": "bytes"
        },
        {
          "internalType": "bool",
          "name": "executed",
          "type": "bool"
        },
        {
          "internalType": "uint256",
          "name": "numConfirmations",
          "type": "uint256"
        },
        {
          "internalType": "bool",
          "name": "isConfirmedByCurrentAccount",
          "type": "bool"
        }
      ],
      "stateMutability": "view",
      "type": "function",
      "constant": true
    },
    {
      "inputs": [
        {
          "internalType": "uint256",
          "name": "_txIndex",
          "type": "uint256"
        },
        {
          "internalType": "address",
          "name": "_owner",
          "type": "address"
        }
      ],
      "name": "isTransactionConfirmed",
      "outputs": [
        {
          "internalType": "bool",
          "name": "",
          "type": "bool"
        }
      ],
      "stateMutability": "view",
      "type": "function",
      "constant": true
    }
  ],
  "bytecode": "0x60806040523480156200001157600080fd5b50604051620025f2380380620025f2833981810160405281019062000037919062000413565b60008251116200007e576040517f08c379a0000000000000000000000000000000000000000000000000000000008152600401620000759062000515565b60405180910390fd5b60008111801562000090575081518111155b620000d2576040517f08c379a0000000000000000000000000000000000000000000000000000000008152600401620000c99062000559565b60405180910390fd5b60005b82518110156200032757600073ffffffffffffffffffffffffffffffffffffffff168382815181106200010d576200010c620006f7565b5b602002602001015173ffffffffffffffffffffffffffffffffffffffff1614156200016f576040517f08c379a0000000000000000000000000000000000000000000000000000000008152600401620001669062000537565b60405180910390fd5b60046000848381518110620001895762000188620006f7565b5b602002602001015173ffffffffffffffffffffffffffffffffffffffff1673ffffffffffffffffffffffffffffffffffffffff16815260200190815260200160002060009054906101000a900460ff16156200021c576040517f08c379a000000000000000000000000000000000000000000000000000000000815260040162000213906200057b565b60405180910390fd5b600160046000858481518110620002385762000237620006f7565b5b602002602001015173ffffffffffffffffffffffffffffffffffffffff1673ffffffffffffffffffffffffffffffffffffffff16815260200190815260200160002060006101000a81548160ff0219169083151502179055506000838281518110620002a957620002a8620006f7565b5b60200260200101519080600181540180825580915050600190039060005260206000200160009091909190916101000a81548173ffffffffffffffffffffffffffffffffffffffff021916908373ffffffffffffffffffffffffffffffffffffffff16021790555080806200031e906200067a565b915050620000d5565b5080600181905550505062000878565b60006200034e6200034884620005c6565b6200059d565b905080838252602082019050828560208602820111156200037457620003736200075a565b5b60005b85811015620003a857816200038d8882620003b2565b84526020840193506020830192505060018101905062000377565b5050509392505050565b600081519050620003c38162000844565b92915050565b600082601f830112620003e157620003e062000755565b5b8151620003f384826020860162000337565b91505092915050565b6000815190506200040d816200085e565b92915050565b600080604083850312156200042d576200042c62000764565b5b600083015167ffffffffffffffff8111156200044e576200044d6200075f565b5b6200045c85828601620003c9565b92505060206200046f85828601620003fc565b9150509250929050565b600062000488600f83620005f5565b915062000495826200077a565b602082019050919050565b6000620004af600d83620005f5565b9150620004bc82620007a3565b602082019050919050565b6000620004d6602883620005f5565b9150620004e382620007cc565b604082019050919050565b6000620004fd601383620005f5565b91506200050a826200081b565b602082019050919050565b60006020820190508181036000830152620005308162000479565b9050919050565b600060208201905081810360008301526200055281620004a0565b9050919050565b600060208201905081810360008301526200057481620004c7565b9050919050565b600060208201905081810360008301526200059681620004ee565b9050919050565b6000620005a9620005bc565b9050620005b7828262000644565b919050565b6000604051905090565b600067ffffffffffffffff821115620005e457620005e362000726565b5b602082029050602081019050919050565b600082825260208201905092915050565b600062000613826200061a565b9050919050565b600073ffffffffffffffffffffffffffffffffffffffff82169050919050565b6000819050919050565b6200064f8262000769565b810181811067ffffffffffffffff8211171562000671576200067062000726565b5b80604052505050565b600062000687826200063a565b91507fffffffffffffffffffffffffffffffffffffffffffffffffffffffffffffffff821415620006bd57620006bc620006c8565b5b600182019050919050565b7f4e487b7100000000000000000000000000000000000000000000000000000000600052601160045260246000fd5b7f4e487b7100000000000000000000000000000000000000000000000000000000600052603260045260246000fd5b7f4e487b7100000000000000000000000000000000000000000000000000000000600052604160045260246000fd5b600080fd5b600080fd5b600080fd5b600080fd5b6000601f19601f8301169050919050565b7f6f776e6572732072657175697265640000000000000000000000000000000000600082015250565b7f696e76616c6964206f776e657200000000000000000000000000000000000000600082015250565b7f696e76616c6964206e756d626572206f6620726571756972656420636f6e666960008201527f726d6174696f6e73000000000000000000000000000000000000000000000000602082015250565b7f6f776e657220616c726561647920616464656400000000000000000000000000600082015250565b6200084f8162000606565b81146200085b57600080fd5b50565b62000869816200063a565b81146200087557600080fd5b50565b611d6a80620008886000396000f3fe6080604052600436106100a05760003560e01c8063a0e67e2b11610064578063a0e67e2b14610210578063c01a8c841461023b578063c642747414610264578063d0549b851461028d578063e4d8e85c146102b8578063ee22610b146102f5576100f7565b8063025e7c27146100fc57806320ea8d86146101395780632e7700f01461016257806333ea3dc81461018d5780639ace38c2146101cf576100f7565b366100f7573373ffffffffffffffffffffffffffffffffffffffff167f90890809c654f11d6e72a28fa60149770a0d11ec6c92319d6ceb2bb0a4ea1a1534476040516100ed929190611864565b60405180910390a2005b600080fd5b34801561010857600080fd5b50610123600480360381019061011e919061133c565b61031e565b604051610130919061161f565b60405180910390f35b34801561014557600080fd5b50610160600480360381019061015b919061133c565b61035d565b005b34801561016e57600080fd5b50610177610639565b6040516101849190611819565b60405180910390f35b34801561019957600080fd5b506101b460048036038101906101af919061133c565b610646565b6040516101c696959493929190611694565b60405180910390f35b3480156101db57600080fd5b506101f660048036038101906101f1919061133c565b6107ba565b60405161020795949392919061163a565b60405180910390f35b34801561021c57600080fd5b506102256108b5565b60405161023291906116fc565b60405180910390f35b34801561024757600080fd5b50610262600480360381019061025d919061133c565b610943565b005b34801561027057600080fd5b5061028b600480360381019061028691906112cd565b610c20565b005b34801561029957600080fd5b506102a2610e2a565b6040516102af9190611819565b60405180910390f35b3480156102c457600080fd5b506102df60048036038101906102da9190611369565b610e30565b6040516102ec919061171e565b60405180910390f35b34801561030157600080fd5b5061031c6004803603810190610317919061133c565b610e98565b005b6000818154811061032e57600080fd5b906000526020600020016000915054906101000a900473ffffffffffffffffffffffffffffffffffffffff1681565b600460003373ffffffffffffffffffffffffffffffffffffffff1673ffffffffffffffffffffffffffffffffffffffff16815260200190815260200160002060009054906101000a900460ff166103e9576040517f08c379a00000000000000000000000000000000000000000000000000000000081526004016103e090611739565b60405180910390fd5b806003805490508110610431576040517f08c379a000000000000000000000000000000000000000000000000000000000815260040161042890611799565b60405180910390fd5b816003818154811061044657610445611b3e565b5b906000526020600020906005020160030160009054906101000a900460ff16156104a5576040517f08c379a000000000000000000000000000000000000000000000000000000000815260040161049c90611779565b60405180910390fd5b826002600082815260200190815260200160002060003373ffffffffffffffffffffffffffffffffffffffff1673ffffffffffffffffffffffffffffffffffffffff16815260200190815260200160002060009054906101000a900460ff16610543576040517f08c379a000000000000000000000000000000000000000000000000000000000815260040161053a906117d9565b60405180910390fd5b60006003858154811061055957610558611b3e565b5b9060005260206000209060050201905060006002600087815260200190815260200160002060003373ffffffffffffffffffffffffffffffffffffffff1673ffffffffffffffffffffffffffffffffffffffff16815260200190815260200160002060006101000a81548160ff02191690831515021790555060018160040160008282546105e791906119bf565b92505081905550843373ffffffffffffffffffffffffffffffffffffffff167ff0dca620e2e81f7841d07bcc105e1704fb01475b278a9d4c236e1c62945edd5560405160405180910390a35050505050565b6000600380549050905090565b60008060606000806000806003888154811061066557610664611b3e565b5b906000526020600020906005020190508060000160009054906101000a900473ffffffffffffffffffffffffffffffffffffffff168160010154826002018360030160009054906101000a900460ff168460040154600260008e815260200190815260200160002060003373ffffffffffffffffffffffffffffffffffffffff1673ffffffffffffffffffffffffffffffffffffffff16815260200190815260200160002060009054906101000a900460ff1683805461072490611a7d565b80601f016020809104026020016040519081016040528092919081815260200182805461075090611a7d565b801561079d5780601f106107725761010080835404028352916020019161079d565b820191906000526020600020905b81548152906001019060200180831161078057829003601f168201915b505050505093509650965096509650965096505091939550919395565b600381815481106107ca57600080fd5b90600052602060002090600502016000915090508060000160009054906101000a900473ffffffffffffffffffffffffffffffffffffffff169080600101549080600201805461081990611a7d565b80601f016020809104026020016040519081016040528092919081815260200182805461084590611a7d565b80156108925780601f1061086757610100808354040283529160200191610892565b820191906000526020600020905b81548152906001019060200180831161087557829003601f168201915b5050505050908060030160009054906101000a900460ff16908060040154905085565b6060600080548060200260200160405190810160405280929190818152602001828054801561093957602002820191906000526020600020905b8160009054906101000a900473ffffffffffffffffffffffffffffffffffffffff1673ffffffffffffffffffffffffffffffffffffffff16815260200190600101908083116108ef575b5050505050905090565b600460003373ffffffffffffffffffffffffffffffffffffffff1673ffffffffffffffffffffffffffffffffffffffff16815260200190815260200160002060009054906101000a900460ff166109cf576040517f08c379a00000000000000000000000000000000000000000000000000000000081526004016109c690611739565b60405180910390fd5b806003805490508110610a17576040517f08c379a0000000000000000000000000000000000000000000000000000000008152600401610a0e90611799565b60405180910390fd5b8160038181548110610a2c57610a2b611b3e565b5b906000526020600020906005020160030160009054906101000a900460ff1615610a8b576040517f08c379a0000000000000000000000000000000000000000000000000000000008152600401610a8290611779565b60405180910390fd5b826002600082815260200190815260200160002060003373ffffffffffffffffffffffffffffffffffffffff1673ffffffffffffffffffffffffffffffffffffffff16815260200190815260200160002060009054906101000a900460ff1615610b2a576040517f08c379a0000000000000000000000000000000000000000000000000000000008152600401610b2190611759565b60405180910390fd5b600060038581548110610b4057610b3f611b3e565b5b9060005260206000209060050201905060016002600087815260200190815260200160002060003373ffffffffffffffffffffffffffffffffffffffff1673ffffffffffffffffffffffffffffffffffffffff16815260200190815260200160002060006101000a81548160ff0219169083151502179055506001816004016000828254610bce9190611969565b92505081905550843373ffffffffffffffffffffffffffffffffffffffff167f5cbe105e36805f7820e291f799d5794ff948af2a5f664e580382defb6339004160405160405180910390a35050505050565b600460003373ffffffffffffffffffffffffffffffffffffffff1673ffffffffffffffffffffffffffffffffffffffff16815260200190815260200160002060009054906101000a900460ff16610cac576040517f08c379a0000000000000000000000000000000000000000000000000000000008152600401610ca390611739565b60405180910390fd5b6000600380549050905060036040518060a001604052808673ffffffffffffffffffffffffffffffffffffffff1681526020018581526020018481526020016000151581526020016000815250908060018154018082558091505060019003906000526020600020906005020160009091909190915060008201518160000160006101000a81548173ffffffffffffffffffffffffffffffffffffffff021916908373ffffffffffffffffffffffffffffffffffffffff160217905550602082015181600101556040820151816002019080519060200190610d8f929190611190565b5060608201518160030160006101000a81548160ff0219169083151502179055506080820151816004015550508373ffffffffffffffffffffffffffffffffffffffff16813373ffffffffffffffffffffffffffffffffffffffff167fd5a05bf70715ad82a09a756320284a1b54c9ff74cd0f8cce6219e79b563fe59d8686604051610e1c929190611834565b60405180910390a450505050565b60015481565b60006002600084815260200190815260200160002060008373ffffffffffffffffffffffffffffffffffffffff1673ffffffffffffffffffffffffffffffffffffffff16815260200190815260200160002060009054906101000a900460ff16905092915050565b600460003373ffffffffffffffffffffffffffffffffffffffff1673ffffffffffffffffffffffffffffffffffffffff16815260200190815260200160002060009054906101000a900460ff16610f24576040517f08c379a0000000000000000000000000000000000000000000000000000000008152600401610f1b90611739565b60405180910390fd5b806003805490508110610f6c576040517f08c379a0000000000000000000000000000000000000000000000000000000008152600401610f6390611799565b60405180910390fd5b8160038181548110610f8157610f80611b3e565b5b906000526020600020906005020160030160009054906101000a900460ff1615610fe0576040517f08c379a0000000000000000000000000000000000000000000000000000000008152600401610fd790611779565b60405180910390fd5b600060038481548110610ff657610ff5611b3e565b5b906000526020600020906005020190506001548160040154101561104f576040517f08c379a0000000000000000000000000000000000000000000000000000000008152600401611046906117b9565b60405180910390fd5b60018160030160006101000a81548160ff02191690831515021790555060008160000160009054906101000a900473ffffffffffffffffffffffffffffffffffffffff1673ffffffffffffffffffffffffffffffffffffffff168260010154836002016040516110bf9190611608565b60006040518083038185875af1925050503d80600081146110fc576040519150601f19603f3d011682016040523d82523d6000602084013e611101565b606091505b5050905080611145576040517f08c379a000000000000000000000000000000000000000000000000000000000815260040161113c906117f9565b60405180910390fd5b843373ffffffffffffffffffffffffffffffffffffffff167f5445f318f4f5fcfb66592e68e0cc5822aa15664039bd5f0ffde24c5a8142b1ac60405160405180910390a35050505050565b82805461119c90611a7d565b90600052602060002090601f0160209004810192826111be5760008555611205565b82601f106111d757805160ff1916838001178555611205565b82800160010185558215611205579182015b828111156112045782518255916020019190600101906111e9565b5b5090506112129190611216565b5090565b5b8082111561122f576000816000905550600101611217565b5090565b6000611246611241846118b2565b61188d565b90508281526020810184848401111561126257611261611ba1565b5b61126d848285611a3b565b509392505050565b60008135905061128481611d06565b92915050565b600082601f83011261129f5761129e611b9c565b5b81356112af848260208601611233565b91505092915050565b6000813590506112c781611d1d565b92915050565b6000806000606084860312156112e6576112e5611bab565b5b60006112f486828701611275565b9350506020611305868287016112b8565b925050604084013567ffffffffffffffff81111561132657611325611ba6565b5b6113328682870161128a565b9150509250925092565b60006020828403121561135257611351611bab565b5b6000611360848285016112b8565b91505092915050565b600080604083850312156113805761137f611bab565b5b600061138e858286016112b8565b925050602061139f85828601611275565b9150509250929050565b60006113b583836113c1565b60208301905092915050565b6113ca816119f3565b82525050565b6113d9816119f3565b82525050565b60006113ea82611908565b6113f4818561192b565b93506113ff836118e3565b8060005b8381101561143057815161141788826113a9565b97506114228361191e565b925050600181019050611403565b5085935050505092915050565b61144681611a05565b82525050565b600061145782611913565b611461818561193c565b9350611471818560208601611a4a565b61147a81611bb0565b840191505092915050565b6000815461149281611a7d565b61149c818661194d565b945060018216600081146114b757600181146114c8576114fb565b60ff198316865281860193506114fb565b6114d1856118f3565b60005b838110156114f3578154818901526001820191506020810190506114d4565b838801955050505b50505092915050565b6000611511602383611958565b915061151c82611bc1565b604082019050919050565b6000611534601183611958565b915061153f82611c10565b602082019050919050565b6000611557601c83611958565b915061156282611c39565b602082019050919050565b600061157a601183611958565b915061158582611c62565b602082019050919050565b600061159d601883611958565b91506115a882611c8b565b602082019050919050565b60006115c0601183611958565b91506115cb82611cb4565b602082019050919050565b60006115e3601283611958565b91506115ee82611cdd565b602082019050919050565b61160281611a31565b82525050565b60006116148284611485565b915081905092915050565b600060208201905061163460008301846113d0565b92915050565b600060a08201905061164f60008301886113d0565b61165c60208301876115f9565b818103604083015261166e818661144c565b905061167d606083018561143d565b61168a60808301846115f9565b9695505050505050565b600060c0820190506116a960008301896113d0565b6116b660208301886115f9565b81810360408301526116c8818761144c565b90506116d7606083018661143d565b6116e460808301856115f9565b6116f160a083018461143d565b979650505050505050565b6000602082019050818103600083015261171681846113df565b905092915050565b6000602082019050611733600083018461143d565b92915050565b6000602082019050818103600083015261175281611504565b9050919050565b6000602082019050818103600083015261177281611527565b9050919050565b600060208201905081810360008301526117928161154a565b9050919050565b600060208201905081810360008301526117b28161156d565b9050919050565b600060208201905081810360008301526117d281611590565b9050919050565b600060208201905081810360008301526117f2816115b3565b9050919050565b60006020820190508181036000830152611812816115d6565b9050919050565b600060208201905061182e60008301846115f9565b92915050565b600060408201905061184960008301856115f9565b818103602083015261185b818461144c565b90509392505050565b600060408201905061187960008301856115f9565b61188660208301846115f9565b9392505050565b60006118976118a8565b90506118a38282611aaf565b919050565b6000604051905090565b600067ffffffffffffffff8211156118cd576118cc611b6d565b5b6118d682611bb0565b9050602081019050919050565b6000819050602082019050919050565b60008190508160005260206000209050919050565b600081519050919050565b600081519050919050565b6000602082019050919050565b600082825260208201905092915050565b600082825260208201905092915050565b600081905092915050565b600082825260208201905092915050565b600061197482611a31565b915061197f83611a31565b9250827fffffffffffffffffffffffffffffffffffffffffffffffffffffffffffffffff038211156119b4576119b3611ae0565b5b828201905092915050565b60006119ca82611a31565b91506119d583611a31565b9250828210156119e8576119e7611ae0565b5b828203905092915050565b60006119fe82611a11565b9050919050565b60008115159050919050565b600073ffffffffffffffffffffffffffffffffffffffff82169050919050565b6000819050919050565b82818337600083830152505050565b60005b83811015611a68578082015181840152602081019050611a4d565b83811115611a77576000848401525b50505050565b60006002820490506001821680611a9557607f821691505b60208210811415611aa957611aa8611b0f565b5b50919050565b611ab882611bb0565b810181811067ffffffffffffffff82111715611ad757611ad6611b6d565b5b80604052505050565b7f4e487b7100000000000000000000000000000000000000000000000000000000600052601160045260246000fd5b7f4e487b7100000000000000000000000000000000000000000000000000000000600052602260045260246000fd5b7f4e487b7100000000000000000000000000000000000000000000000000000000600052603260045260246000fd5b7f4e487b7100000000000000000000000000000000000000000000000000000000600052604160045260246000fd5b600080fd5b600080fd5b600080fd5b600080fd5b6000601f19601f8301169050919050565b7f6f6e6c79206f776e6572732063616e207375626d6974205472616e736163746960008201527f6f6e730000000000000000000000000000000000000000000000000000000000602082015250565b7f616c726561647920636f6e6669726d6564000000000000000000000000000000600082015250565b7f5472616e73616374696f6e20616c726561647920657865637574656400000000600082015250565b7f747820646f6573206e6f74206578697374000000000000000000000000000000600082015250565b7f6e6f7420656e6f75676820636f6e6669726d6174696f6e730000000000000000600082015250565b7f6e6f742079657420636f6e6669726d6564000000000000000000000000000000600082015250565b7f7472616e73616374696f6e206661696c65640000000000000000000000000000600082015250565b611d0f816119f3565b8114611d1a57600080fd5b50565b611d2681611a31565b8114611d3157600080fd5b5056fea264697066735822122077be56b93658449c59d8ce71a6ed28fb08d94421accc0020ee249dba17d2519964736f6c63430008070033",
  "immutableReferences": {},
  "source": "// SPDX-License-Identifier: MIT\npragma solidity ^0.8.7;\n\ncontract MultiSigWallet {\n\tevent Deposit(address indexed sender, uint256 amount, uint256 balance);\n\tevent SubmitTransaction(\n\t\taddress indexed owner,\n\t\tuint256 indexed txIndex,\n\t\taddress indexed to,\n\t\tuint256 value,\n\t\tbytes data\n\t);\n\tevent ConfirmTransaction(address indexed owner, uint256 indexed txIndex);\n\tevent RevokeConfirmation(address indexed owner, uint256 indexed txIndex);\n\tevent ExecuteTransaction(address indexed owner, uint256 indexed txIndex);\n\n\taddress[] public owners;\n\tuint256 public numConfirmationsRequired;\n\n\tstruct Transaction {\n\t\taddress to;\n\t\tuint256 value;\n\t\tbytes data;\n\t\tbool executed;\n\t\tuint256 numConfirmations;\n\t}\n\n\tmapping(uint256 => mapping(address => bool)) isConfirmed;\n\tTransaction[] public transactions;\n\tmapping(address => bool) private isOwner;\n\n\treceive() external payable {\n\t\temit Deposit(msg.sender, msg.value, address(this).balance);\n\t}\n\n\tconstructor(address[] memory _owners, uint256 _numConfirmationsRequired)\n\t\tpublic\n\t{\n\t\trequire(_owners.length > 0, \"owners required\");\n\t\trequire(\n\t\t\t_numConfirmationsRequired > 0 &&\n\t\t\t\t_numConfirmationsRequired <= _owners.length,\n\t\t\t\"invalid number of required confirmations\"\n\t\t);\n\n\t\tfor (uint256 i = 0; i < _owners.length; i++) {\n\t\t\trequire(_owners[i] != address(0), \"invalid owner\");\n\t\t\trequire(!isOwner[_owners[i]], \"owner already added\");\n\t\t\tisOwner[_owners[i]] = true;\n\t\t\towners.push(_owners[i]);\n\t\t}\n\n\t\tnumConfirmationsRequired = _numConfirmationsRequired;\n\t}\n\n\tmodifier Owner() {\n\t\trequire(isOwner[msg.sender], \"only owners can submit Transactions\");\n\t\t_;\n\t}\n\n\tfunction submitTransaction(\n\t\taddress _to,\n\t\tuint256 _value,\n\t\tbytes memory _data\n\t) public Owner {\n\t\tuint256 txIndex = transactions.length;\n\t\ttransactions.push(\n\t\t\tTransaction({\n\t\t\t\tto: _to,\n\t\t\t\tvalue: _value,\n\t\t\t\tdata: _data,\n\t\t\t\texecuted: false,\n\t\t\t\tnumConfirmations: 0\n\t\t\t})\n\t\t);\n\n\t\temit SubmitTransaction(msg.sender, txIndex, _to, _value, _data);\n\t}\n\n\tmodifier txExists(uint256 _txIndex) {\n\t\trequire(_txIndex < transactions.length, \"tx does not exist\");\n\t\t_;\n\t}\n\n\tmodifier txNotExecuted(uint256 _txIndex) {\n\t\trequire(\n\t\t\t!transactions[_txIndex].executed,\n\t\t\t\"Transaction already executed\"\n\t\t);\n\t\t_;\n\t}\n\n\tmodifier notConfirmed(uint256 _txIndex) {\n\t\trequire(!isConfirmed[_txIndex][msg.sender], \"already confirmed\");\n\t\t_;\n\t}\n\n\tmodifier Confirmed(uint256 _txIndex) {\n\t\trequire(isConfirmed[_txIndex][msg.sender], \"not yet confirmed\");\n\t\t_;\n\t}\n\n\tfunction confirmTransaction(uint256 _txIndex)\n\t\tpublic\n\t\tOwner\n\t\ttxExists(_txIndex)\n\t\ttxNotExecuted(_txIndex)\n\t\tnotConfirmed(_txIndex)\n\t{\n\t\tTransaction storage transaction = transactions[_txIndex];\n\t\tisConfirmed[_txIndex][msg.sender] = true;\n\t\ttransaction.numConfirmations += 1;\n\n\t\temit ConfirmTransaction(msg.sender, _txIndex);\n\t}\n\n\tfunction executeTransaction(uint256 _txIndex)\n\t\tpublic\n\t\tOwner\n\t\ttxExists(_txIndex)\n\t\ttxNotExecuted(_txIndex)\n\t{\n\t\tTransaction storage transaction = transactions[_txIndex];\n\n\t\trequire(\n\t\t\ttransaction.numConfirmations >= numConfirmationsRequired,\n\t\t\t\"not enough confirmations\"\n\t\t);\n\n\t\ttransaction.executed = true;\n\t\t(bool success, ) = transaction.to.call{value: transaction.value}(\n\t\t\ttransaction.data\n\t\t);\n\t\trequire(success, \"transaction failed\");\n\t\temit ExecuteTransaction(msg.sender, _txIndex);\n\t}\n\n\tfunction revokeConfirmation(uint256 _txIndex)\n\t\tpublic\n\t\tOwner\n\t\ttxExists(_txIndex)\n\t\ttxNotExecuted(_txIndex)\n\t\tConfirmed(_txIndex)\n\t{\n\t\tTransaction storage transaction = transactions[_txIndex];\n\t\tisConfirmed[_txIndex][msg.sender] = false;\n\t\ttransaction.numConfirmations -= 1;\n\n\t\temit RevokeConfirmation(msg.sender, _txIndex);\n\t}\n\n\t// Helper methods\n\n\tfunction getOwners() public view returns (address[] memory) {\n\t\treturn owners;\n\t}\n\n\tfunction getTransactionCount() public view returns (uint256) {\n\t\treturn transactions.length;\n\t}\n\n\tfunction getTransaction(uint256 _txIndex)\n\t\tpublic\n\t\tview\n\t\treturns (\n\t\t\taddress to,\n\t\t\tuint256 value,\n\t\t\tbytes memory data,\n\t\t\tbool executed,\n\t\t\tuint256 numConfirmations,\n\t\t\tbool isConfirmedByCurrentAccount\n\t\t)\n\t{\n\t\tTransaction storage transaction = transactions[_txIndex];\n\n\t\treturn (\n\t\t\ttransaction.to,\n\t\t\ttransaction.value,\n\t\t\ttransaction.data,\n\t\t\ttransaction.executed,\n\t\t\ttransaction.numConfirmations,\n\t\t\tisConfirmed[_txIndex][msg.sender]\n\t\t);\n\t}\n\n\tfunction isTransactionConfirmed(uint256 _txIndex, address _owner)\n\t\tpublic\n\t\tview\n\t\treturns (bool)\n\t{\n\t\treturn isConfirmed[_txIndex][_owner];\n\t}\n}\n",
  "sourcePath": "/Users/throvn/Desktop/multi-signature-wallet/multi-signature-wallet-backend/contracts/MultiSigWallet.sol",
  "compiler": {
    "name": "solc",
    "version": "0.8.7+commit.e28d00a7.Emscripten.clang"
  },
  "schemaVersion": "3.4.3",
  "updatedAt": "2021-09-18T16:00:24.200Z",
  "networkType": "ethereum",
  "devdoc": {
    "kind": "dev",
    "methods": {},
    "version": 1
  },
  "userdoc": {
    "kind": "user",
    "methods": {},
    "version": 1
  }
}